:100000000C945D000C94A1030C947A030C9485006D
:100010000C9485000C9485000C9485000C9485004C
:100020000C9485000C9485000C9485000C9485003C
:100030000C9485000C9485000C9485000C9485002C
:100040000C94D8020C9485000C9448030C94220361
:100050000C9485000C9485000C9485000C9485000C
:100060000C9485000C94850000000008000201003B
:100070000003040700000000000000000000000072
:10008000250028002B0000000000240027002A0083
:10009000040404040404040402020202020203032E
:1000A0000303030301020408102040800102040836
:1000B0001020010204081020930411241FBECFEF6A
:1000C000D8E0DEBFCDBF21E0A2E3B1E001C01D92C8
:1000D000AE3DB207E1F711E0A0E0B1E0ECE4FEE0F4
:1000E00002C005900D92A233B107D9F710E0CDE51B
:1000F000D0E004C02197FE010E942C05CC35D10729
:10010000C9F70E94C8030C9424070C940000AF9216
:10011000BF92CF92DF92EF92FF920F931F93CF93F4
:10012000DF936C017B018B01040F151FEB015E0156
:10013000AE18BF08C017D10759F06991D601ED91EB
:10014000FC910190F081E02DC6010995892B79F78A
:10015000C501DF91CF911F910F91FF90EF90DF903C
:10016000CF90BF90AF900895FC01538D448D252F03
:1001700030E0842F90E0821B930B541710F0CF9641
:10018000089501970895FC01918D828D981761F073
:10019000A28DAE0FBF2FB11D5D968C91928D9F5F8A
:1001A0009F73928F90E008958FEF9FEF0895FC0169
:1001B000918D828D981731F0828DE80FF11D858D1C
:1001C00090E008958FEF9FEF0895FC01918D228DAF
:1001D000892F90E0805C9F4F821B91098F73992734
:1001E000089584E391E00E94E50021E0892B09F461
:1001F00020E0822F089580E090E0892B29F00E9472
:10020000F10081110C9400000895FC01A48DA80F49
:10021000B92FB11DA35ABF4F2C91848D90E0019648
:100220008F739927848FA689B7892C93A089B18968
:100230008C91837080648C93938D848D981306C009
:100240000288F389E02D80818F7D80830895EF926D
:10025000FF920F931F93CF93DF93EC0181E0888F80
:100260009B8D8C8D98131AC0E889F989808185FF50
:1002700015C09FB7F894EE89FF896083E889F989F2
:1002800080818370806480839FBF81E090E0DF91F4
:10029000CF911F910F91FF90EF900895F62E0B8D47
:1002A00010E00F5F1F4F0F731127E02E8C8D8E1102
:1002B0000CC00FB607FCFACFE889F989808185FF69
:1002C000F5CFCE010E940501F1CFEB8DEC0FFD2F94
:1002D000F11DE35AFF4FF0829FB7F8940B8FEA8924
:1002E000FB8980818062CFCFCF93DF93EC01888D33
:1002F0008823B9F0AA89BB89E889F9898C9185FDA1
:1003000003C0808186FD0DC00FB607FCF7CF8C912E
:1003100085FFF2CF808185FFEDCFCE010E940501E0
:10032000E9CFDF91CF91089508950F931F93CF9355
:10033000DF93EC0188819981009759F02A813B81F4
:100340002617370730F081E0DF91CF911F910F9191
:1003500008958B016F5F7F4F0E945706009759F0F9
:10036000998388831B830A832C813D81232B59F732
:10037000FC011082E8CF80E0E7CFEF92FF920F936D
:100380001F93CF93DF93EC017B018A01BA010E9496
:10039000950128813981811114C02115310519F089
:1003A000C9010E94CE05198218821D821C821B82FF
:1003B0001A82CE01DF91CF911F910F91FF90EF90A4
:1003C00008951D830C83B701C9010E941D07F1CF59
:1003D000CF92DF92EF92FF920F931F93CF93DF9311
:1003E000CDB7DEB768970FB6F894DEBF0FBECDBFAE
:1003F000209132013091330181E090E021153105E7
:1004000011F090E080E09093330180933201E5E7B2
:10041000F0E09491E1EBF0E08491EDE9F0E0E4911B
:10042000EE23F1F0992359F0933009F49BC008F0C2
:100430008EC0913009F49CC0923009F49DC0F0E068
:10044000EE0FFF1FE458FF4FA591B4919FB7F894AA
:10045000EC91232B09F49DC080958E238C939FBF34
:1004600080913201909133011C8A1B8A1E8A1D8A59
:10047000188E1F8A4AE08E010F5F1F4FB8010E943D
:10048000C004F80101900020E9F73197AF01401B4B
:10049000510BB801CE0143960E94BD011A82198208
:1004A0001C821B821E821D8241E150E06CE171E0E2
:1004B000C8010E94BD01CB88DC88C114D10409F4B5
:1004C0006AC0EF88F88CE114F104B1F08D819E814F
:1004D000E80EF91EB701C8010E949501882309F4AE
:1004E0005AC029813A818D819E81B601820F931F66
:1004F0000E941D07FE82ED824D815E8169817A81B5
:1005000084E391E00E94870042E050E06EE271E0F7
:1005100084E391E00E94870089819A81009711F01D
:100520000E94CE058B899C89009711F00E94CE0510
:1005300068960FB6F894DEBF0FBECDBFDF91CF91A6
:100540001F910F91FF90EF90DF90CF90089597301B
:10055000B1F09830D1F0943009F071CF90918000D3
:100560009F7D03C0909180009F779093800067CF1C
:1005700094B59F7794BD63CF94B59F7DFBCF909149
:10058000B0009F779093B0005ACF9091B0009F7DBC
:10059000F9CF8E2B63CF89819A81009711F00E9449
:1005A000CE051A8219821E821D821C821B82A4CF54
:1005B0001F920F920FB60F9211242F933F938F9398
:1005C0009F93AF93BF938091D6019091D701A09153
:1005D000D801B091D9013091D50123E0230F2D37F7
:1005E00058F50196A11DB11D2093D5018093D60128
:1005F0009093D701A093D801B093D9018091D101F4
:100600009091D201A091D301B091D4010196A11D86
:10061000B11D8093D1019093D201A093D301B093E7
:10062000D401BF91AF919F918F913F912F910F90E6
:100630000FBE0F901F90189526E8230F0296A11D5C
:10064000B11DD2CF1F920F920FB60F9211242F938C
:100650003F934F935F936F937F938F939F93AF934A
:10066000BF93EF93FF9384E391E00E940501FF9114
:10067000EF91BF91AF919F918F917F916F915F911A
:100680004F913F912F910F900FBE0F901F90189593
:100690001F920F920FB60F9211242F938F939F9357
:1006A000EF93FF93E0914401F09145018081E09147
:1006B0004A01F0914B0182FD1BC0908180914D0158
:1006C0008F5F8F7320914E01821741F0E0914D01B1
:1006D000F0E0EC5CFE4F958F80934D01FF91EF9120
:1006E0009F918F912F910F900FBE0F901F90189593
:1006F0008081F4CF1F920F920FB60F9211242F9387
:100700003F934F935F936F937F938F939F93AF9399
:10071000BF93EF93FF93E0910201F09103010995DC
:10072000FF91EF91BF91AF919F918F917F916F91C9
:100730005F914F913F912F910F900FBE0F901F909F
:1007400018951F920F920FB60F9211242F933F937B
:100750004F935F936F937F938F939F93AF93BF93C9
:10076000EF93FF93E0910001F09101010995FF9152
:10077000EF91BF91AF919F918F917F916F915F9119
:100780004F913F912F910F900FBE0F901F90189592
:10079000789484B5826084BD84B5816084BD85B55C
:1007A000826085BD85B5816085BD80916E00816068
:1007B00080936E001092810080918100826080930E
:1007C0008100809181008160809381008091800010
:1007D0008160809380008091B10084608093B1003B
:1007E0008091B00081608093B00080917A00846035
:1007F00080937A0080917A00826080937A00809161
:100800007A00816080937A0080917A00806880937A
:100810007A001092C100E1EBF0E02491EDE9F0E004
:100820008491882399F090E0880F991FFC01EA5782
:10083000FF4FA591B491FC01E458FF4F859194912D
:100840008FB7F894EC91E22BEC938FBFE7EAF0E0DE
:100850002491E3E9F0E084918823C1F090E0880FCF
:10086000991FFC01EA57FF4FC591D491FC01E45850
:10087000FF4FA591B4919FB7F8943881822F80954E
:1008800083238883EC91E22BEC939FBF88EE91E069
:10089000909303018093020180916900837F8860B7
:1008A00080936900E99AE0914401F091450182E06A
:1008B0008083E0914001F09141011082E09142017A
:1008C000F09143018FEC808310924C01E09148013C
:1008D000F091490186E08083E0914601F091470163
:1008E000808180618083E0914601F09147018081A1
:1008F00088608083E0914601F091470180818068A3
:100900008083E0914601F091470180818F7D808353
:10091000C0E0D0E02097F1F30E94F1008823D1F3EA
:100920000E940000F7CFE4E3F1E01382128288EE28
:1009300093E0A0E0B0E084839583A683B7838EE044
:1009400091E09183808385EC90E09587848784ECA7
:1009500090E09787868780EC90E0918B808B81EC8C
:1009600090E0938B828B82EC90E0958B848B86EC6D
:1009700090E0978B868B118E128E138E148E0895B5
:10098000BB274A3031F4992322F4BDE2909581953A
:100990009F4F0C94CC04BB27FB015527AA27880F37
:1009A000991FAA1FA41710F0A41B83955051B9F7E3
:1009B000A05DAA3308F0A95DA193009779F7B11162
:1009C000B1931192CB010C94E504DC01FC01672F7B
:1009D00071917723E1F7329704C07C916D93708316
:1009E0006291AE17BF07C8F308952F923F924F92BE
:1009F0005F926F927F928F929F92AF92BF92CF92AF
:100A0000DF92EF92FF920F931F93CF93DF93CDB7B7
:100A1000DEB7CA1BDB0B0FB6F894DEBF0FBECDBF2F
:100A200009942A88398848885F846E847D848C8400
:100A30009B84AA84B984C884DF80EE80FD800C8109
:100A40001B81AA81B981CE0FD11D0FB6F894DEBFEC
:100A50000FBECDBFED010895EE0FFF1F0590F4917D
:100A6000E02D09940F931F93CF93DF93823091056C
:100A700010F482E090E0E091DC01F091DD0130E0E3
:100A800020E0B0E0A0E0309799F42115310509F499
:100A90004AC0281B390B24303105D8F58A819B8147
:100AA0006115710589F1FB0193838283FE0111C0F9
:100AB000408151810281138148175907E0F048179E
:100AC000590799F4109761F012960C9312971396A8
:100AD0001C933296CF01DF91CF911F910F91089512
:100AE0000093DC011093DD01F4CF2115310551F0A5
:100AF0004217530738F0A901DB019A01BD01DF015C
:100B0000F801C1CFEF01F9CF9093DD018093DC01B3
:100B1000CDCFFE01E20FF31F819391932250310953
:100B200039832883D7CF2091DA013091DB01232B41
:100B300041F420910601309107013093DB012093AD
:100B4000DA0120910401309105012115310541F4AC
:100B50002DB73EB74091080150910901241B350B78
:100B6000E091DA01F091DB01E217F307A0F42E1B0C
:100B70003F0B2817390778F0AC014E5F5F4F241701
:100B8000350748F04E0F5F1F5093DB014093DA01A9
:100B9000819391939FCFF0E0E0E09CCFCF93DF93E0
:100BA0000097E9F0FC01329713821282A091DC01D8
:100BB000B091DD01ED0130E020E01097A1F420813B
:100BC0003181820F931F2091DA013091DB012817C8
:100BD000390709F061C0F093DB01E093DA01DF919E
:100BE000CF910895EA01CE17DF07E8F54A815B81CE
:100BF0009E0141155105B1F7E901FB83EA83499153
:100C00005991C40FD51FEC17FD0761F480819181C4
:100C10000296840F951FE9019983888382819381CD
:100C20009B838A83F0E0E0E012968D919C9113976C
:100C30000097B9F52D913C911197CD010296820F45
:100C4000931F2091DA013091DB012817390739F61B
:100C5000309751F51092DD011092DC01B093DB0169
:100C6000A093DA01BCCFD383C28340815181840F2A
:100C7000951FC817D90761F44E5F5F4F888199812E
:100C8000480F591F518340838A819B8193838283BC
:100C90002115310509F0B0CFF093DD01E093DC01BF
:100CA0009ECFFD01DC01C0CF13821282D7CFB0E00E
:100CB000A0E0EDE5F6E00C94F7048C01009751F408
:100CC000CB010E9432058C01C801CDB7DEB7E0E14F
:100CD0000C941305FC01E60FF71F9C01225031090B
:100CE000E217F30708F49DC0D901CD91DC9111976B
:100CF000C617D70798F0C530D10530F3CE01049759
:100D00008617970708F3C61BD70B2297C193D19379
:100D10006D937C93CF010E94CE05D6CF5B01AC1AB8
:100D2000BD0A4C018C0E9D1EA091DC01B091DD012D
:100D3000512C412CF12CE12C109731F58091DA01E6
:100D40009091DB018815990509F05CC0461657069D
:100D500008F058C08091040190910501009741F47A
:100D60008DB79EB74091080150910901841B950BE6
:100D7000E817F90708F055C0F093DB01E093DA01BA
:100D8000F90171836083A0CF8D919C911197129688
:100D90006C90129713967C901397A815B90559F586
:100DA0006C0142E0C40ED11CCA14DB0420F1AC017A
:100DB0004A195B09DA011296159780F062827382F4
:100DC00051834083D9016D937C93E114F10471F058
:100DD000D7011396FC93EE93129776CF22968C0F41
:100DE0009D1FF90191838083F301EFCFF093DD0123
:100DF000E093DC0169CF4816590608F42C017D0107
:100E0000D3019ACFCB010E9432057C01009749F0B3
:100E1000AE01B8010E941407C8010E94CE058701E7
:100E200053CF10E000E050CFFB01DC0102C0019085
:100E30000D9241505040D8F70895FB01DC0101901C
:0C0E40000D920020E1F70895F894FFCF18
:100E4C00940194010000DE018000000000002701E5
:100E5C008700B4007401E500C300D70050726573BD
:100E6C007365642C2076616C7565203D20000D0A3D
:020E7C00000074
:00000001FF
