:100000000C9462000C948A000C948A000C948A0070
:100010000C948A000C948A000C948A000C948A0038
:100020000C948A000C948A000C948A000C948A0028
:100030000C948A000C948A000C948A000C948A0018
:100040000C94CB010C948A000C948A000C948A00C6
:100050000C948A000C948A000C948A000C948A00F8
:100060000C948A000C948A000000000023002600F3
:10007000290000000008000201000003040700003E
:1000800000000000000000000000250028002B00F8
:1000900000000000240027002A00040404040404D3
:1000A0000404020202020202030303030303010227
:1000B00004081020408001020408102001020408F6
:1000C0001020E40211241FBECFEFD8E0DEBFCDBF69
:1000D00011E0A0E0B1E0E6E3F8E002C005900D9287
:1000E000A031B107D9F721E0A0E1B1E001C01D9234
:1000F000A132B207E1F710E0C2E6D0E004C02197D8
:10010000FE010E94E902C136D107C9F70E9415021B
:100110000C9419040C940000833081F028F4813091
:1001200099F08230A9F008958730A9F08830C9F09D
:100130008430B1F4809180008F7D03C08091800075
:100140008F7780938000089584B58F7784BD08955C
:1001500084B58F7DFBCF8091B0008F778093B00006
:1001600008958091B0008F7DF9CF8F929F92AF92CA
:10017000BF92CF92DF92EF92FF920F931F93CF9394
:10018000DF93DC018FB7F894C0901701D09018016D
:10019000E0901901F0901A018FBFE0911501F091E4
:1001A0001601D0E0C0E0309789F1068117812085E3
:1001B00031854281538164817581040F151F261F8B
:1001C000371F0C191D092E093F0916964D915D9197
:1001D0006D917C91199712968D909D90AD90BC90E9
:1001E0001597480D591D6A1D7B1D4C195D096E0937
:1001F0007F094017510762077307E4F42097A9F0BD
:10020000BD87AC871D96FC93EE931C97DF91CF9131
:100210001F910F91FF90EF90DF90CF90BF90AF9024
:100220009F908F900895FC01BECFB0931601A093CC
:100230001501E8CF84859585EF010097A1F7B58773
:10024000A487E4CFDC011E96ED91FC9109940895FA
:10025000CF92DF92EF92FF928FB7F894C090170180
:10026000D0901801E0901901F0901A018FBF80E141
:1002700090E00E94EF02FC0184EF91E0A0E0B0E08A
:1002800082839383A483B583C682D782E086F18676
:1002900013861286158614868AE091E09183808306
:1002A0008EE691E097878687F0931C01E0931B010F
:1002B0008091150190911601892B49F4F093160154
:1002C000E0931501FF90EF90DF90CF900895CF015C
:1002D000FF90EF90DF90CF900C94B500CF92DF921B
:1002E000EF92FF920F931F93CF93DF932FE7C22ECE
:1002F00020E0D22EF60184913BEBE32E30E0F32E8A
:10030000F7010491C7EAD0E0FE011491112309F42A
:1003100039C081110E948C00E12FF0E0EE0FFF1F29
:10032000E859FF4FA591B4918C91082391E080E0AA
:1003300009F490E0092F182FF6018491F701E49059
:10034000FE01C491CC23A1F081110E948C00EC2FFE
:10035000F0E0EE0FFF1FEA57FF4FA591B4918FB762
:10036000F8949C91012B89F0E094E922EC928FBFE4
:10037000DF91CF911F910F91FF90EF90DF90CF9081
:100380000C94280110E000E0D7CFE92AEFCF0E94BB
:1003900014040C948B031F920F920FB60F9211242A
:1003A0002F933F938F939F93AF93BF9380911701A8
:1003B00090911801A0911901B0911A013091140186
:1003C00023E0230F2D3758F50196A11DB11D209371
:1003D00014018093170190931801A0931901B09311
:1003E0001A018091100190911101A0911201B09118
:1003F00013010196A11DB11D80931001909311016D
:10040000A0931201B0931301BF91AF919F918F916F
:100410003F912F910F900FBE0F901F90189526E8D7
:10042000230F0296A11DB11DD2CF789484B58260AE
:1004300084BD84B5816084BD85B5826085BD85B588
:10044000816085BD80916E00816080936E00109206
:100450008100809181008260809381008091810081
:100460008160809381008091800081608093800012
:100470008091B10084608093B1008091B000816070
:100480008093B00080917A00846080937A0080919C
:100490007A00826080937A0080917A0081608093F4
:1004A0007A0080917A00806880937A001092C1006F
:1004B000EBEBF0E02491E7EAF0E08491882399F0F7
:1004C00090E0880F991FFC01E057FF4FA591B49170
:1004D000FC01EA57FF4F859194918FB7F894EC9106
:1004E000E22BEC938FBF0E942801C0E0D0E0809106
:1004F000150190911601892B09F453C08FB7F89418
:10050000C0901701D0901801E0901901F0901A01E5
:100510008FBFA0911501B091160116964D915D9176
:100520006D917C91199797018601041B150B260B81
:10053000370B12964D915D916D917C9115974017F7
:1005400051076207730768F5ED91FC9111970480DC
:10055000F581E02DCD010995A0911501B09116010D
:100560001097F9F01C968D919C911D979093160110
:10057000809315011A962D913C911B9722303105DD
:10058000D1F41696CD92DD92ED92FC9219971D96BC
:100590001C921E921C97892B51F4B0931601A093C4
:1005A0001501209709F4A3CF0E940000A0CFCD0130
:1005B0000E94B500F6CFED91FC9111970280F38176
:1005C000E02DCD010995EDCF10921C0110921B0179
:1005D0000895EE0FFF1F0590F491E02D09940F93FD
:1005E0001F93CF93DF938230910510F482E090E067
:1005F000E0911F01F091200130E020E0B0E0A0E0A8
:10060000309799F42115310509F44AC0281B390B9C
:1006100024303105D8F58A819B816115710589F1F6
:10062000FB0193838283FE0111C0408151810281CD
:10063000138148175907E0F04817590799F41097A4
:1006400061F012960C93129713961C933296CF0179
:10065000DF91CF911F910F91089500931F01109387
:100660002001F4CF2115310551F04217530738F01E
:10067000A901DB019A01BD01DF01F801C1CFEF0142
:10068000F9CF9093200180931F01CDCFFE01E20F9F
:10069000F31F819391932250310939832883D7CF57
:1006A00020911D0130911E01232B41F42091020164
:1006B0003091030130931E0120931D012091000110
:1006C000309101012115310541F42DB73EB740911C
:1006D000040150910501241B350BE0911D01F0919F
:1006E0001E01E217F307A0F42E1B3F0B2817390752
:1006F00078F0AC014E5F5F4F2417350748F04E0F7E
:100700005F1F50931E0140931D01819391939FCFD2
:10071000F0E0E0E09CCFCF93DF930097E9F0FC019D
:10072000329713821282A0911F01B0912001ED0136
:1007300030E020E01097A1F420813181820F931FD7
:1007400020911D0130911E012817390709F061C061
:10075000F0931E01E0931D01DF91CF910895EA010E
:10076000CE17DF07E8F54A815B819E0141155105EF
:10077000B1F7E901FB83EA8349915991C40FD51F71
:10078000EC17FD0761F4808191810296840F951F1B
:10079000E90199838883828193819B838A83F0E036
:1007A000E0E012968D919C9113970097B9F52D91E9
:1007B0003C911197CD010296820F931F20911D014C
:1007C00030911E012817390739F6309751F51092EC
:1007D000200110921F01B0931E01A0931D01BCCFF8
:1007E000D383C28340815181840F951FC817D907D5
:1007F00061F44E5F5F4F88819981480F591F518383
:1008000040838A819B81938382832115310509F07E
:10081000B0CFF0932001E0931F019ECFFD01DC01DA
:10082000C0CF13821282D7CF81E090E0F8940C946D
:060830001904F894FFCF4B
:10083600000021018000000000002701C9012201FB
:00000001FF
